:020000040800F2
:1000000000000120812C0208F5140008D10200082C
:10001000F9140008FD140008011500080000000094
:1000200000000000000000000000000005150008AE
:100030000915000800000000570200087D2800088C
:10004000C92C0208C92C0208C92C0208C92C0208B4
:10005000C92C0208C92C0208C92C0208C92C0208A4
:10006000C92C0208C92C0208C92C0208C92C020894
:10007000C92C0208C92C0208C92C0208C92C020884
:10008000C92C0208C92C0208C92C0208C92C020874
:10009000C92C0208C92C0208C92C0208C92C020864
:1000A000C92C0208C92C0208C92C0208C92C020854
:1000B000C92C0208C92C0208C92C0208C92C020844
:1000C000C92C0208C92C0208C92C0208C92C020834
:1000D000C92C0208CD160008C92C0208C92C020838
:1000E000C92C0208C92C0208C92C0208C92C020814
:1000F000C92C0208C92C0208C92C0208C92C020804
:10010000C92C0208C92C0208C92C0208C92C0208F3
:10011000C92C0208C92C0208C92C0208C92C0208E3
:10012000C92C0208C92C0208C92C0208C92C0208D3
:1001300000000000000000000000000000000000BF
:1001400000000000000000000000000000000000AF
:10015000000000000000000000000000000000009F
:10016000000000000000000000000000000000008F
:10017000000000000000000000000000000000007F
:10018000000000000000000000000000000000006F
:10019000000000000000000000000000000000005F
:1001A000000000000000000000000000000000004F
:1001B000000000000000000000000000000000003F
:1001C000000000000000000000000000000000002F
:1001D000000000000000000000000000000000001F
:0401E0005FF8E0F1F3
:1001E80010B5054C237833B9044B13B10448AFF369
:1001F80000800123237010BDDC02002000000000F5
:10020800485D020808B5034B1BB103490348AFF327
:10021800008008BD00000000E0020020485D0208E0
:10022800EFF3108072B6704780F310887047354A34
:100238001368012B04D04FF001031360324A106099
:10024800324A116032484FF0805101607047EFF335
:10025800108272B62B48016891B14FF0000101601D
:100268002948016829B1EFF3098121E9F00F0068F5
:100278000160264909680968B1E8F00F81F3098827
:1002880082F310884EF0040E7047204908601E491A
:100298004FF0000008601B494FF0010008601D483E
:1002A8001D49D0F8002041EA0201016018484FF0CA
:1002B8008051016019480068006800BF80F3088811
:1002C80061B662B6704700BFEFF308801EF0040FF6
:1002D80001D0EFF3098020E9F00F40F804ED1EF09B
:1002E800040F02D080F3098801E080F3088800B584
:1002F80003F0B0FC5DF804EB4EF0040E7047EFF32A
:1003080005807047DCD10020D8D10020D4D100204E
:1003180004ED00E020ED00E00000FFFF08ED00E044
:1003280010F8012B11F8013B012A28BF9A42F7D097
:10033800D01A7047034613F8012B002AFBD1181A6C
:100348000138704781F0004102E000BF83F00043AC
:1003580030B54FEA41044FEA430594EA050F08BF58
:1003680090EA020F1FBF54EA000C55EA020C7FEA1C
:10037800645C7FEA655C00F0E2804FEA5454D4EB99
:100388005555B8BF6D420CDD2C4480EA020281EA63
:10039800030382EA000083EA010180EA020281EA9B
:1003A8000303362D88BF30BD11F0004F4FEA0131ED
:1003B8004FF4801C4CEA113102D0404261EB4101FC
:1003C80013F0004F4FEA03334CEA133302D0524282
:1003D80063EB430394EA050F00F0A780A4F101043E
:1003E800D5F1200E0DDB02FA0EFC22FA05F2801878
:1003F80041F1000103FA0EF2801843FA05F359415E
:100408000EE0A5F120050EF1200E012A03FA0EFCDC
:1004180028BF4CF0020C43FA05F3C01851EBE37106
:1004280001F0004507D54FF0000EDCF1000C7EEB23
:1004380000006EEB0101B1F5801F1BD3B1F5001F61
:100448000CD349085FEA30004FEA3C0C04F1010480
:100458004FEA445212F5800F80F09A80BCF1004FA9
:1004680008BF5FEA500C50F1000041EB045141EA2B
:10047800050130BD5FEA4C0C404141EB0101013CF4
:1004880028BFB1F5801FE9D291F0000F04BF0146E3
:100498000020B1FA81F308BF2033A3F10B03B3F1B5
:1004A80020020CDA0C3208DD02F1140CC2F10C0245
:1004B80001FA0CF021FA02F10CE002F11402D8BFA3
:1004C800C2F1200C01FA02F120FA0CFCDCBF41EA6F
:1004D8000C019040E41AA2BF01EB0451294330BD3E
:1004E8006FEA04041F3C1CDA0C340EDC04F114041B
:1004F800C4F1200220FA04F001FA02F340EA0300F2
:1005080021FA04F345EA030130BDC4F10C04C4F137
:10051800200220FA02F001FA04F340EA0300294617
:1005280030BD21FA04F0294630BD94F0000F83F461
:10053800801306BF81F480110134013D4EE77FEA44
:10054800645C18BF7FEA655C29D094EA050F08BF90
:1005580090EA020F05D054EA000C04BF1946104671
:1005680030BD91EA030F1EBF0021002030BD5FEAB5
:10057800545C05D14000494128BF41F0004130BDDD
:1005880014F580043CBF01F5801130BD01F0004531
:1005980045F0FE4141F470014FF0000030BD7FEAA4
:1005A800645C1ABF194610467FEA655C1CBF0B469F
:1005B800024650EA013406BF52EA033591EA030FB6
:1005C80041F4002130BD00BF90F0000F04BF0021AE
:1005D800704730B54FF4806404F132044FF00005E1
:1005E8004FF0000150E700BF90F0000F04BF00215A
:1005F800704730B54FF4806404F1320410F00045C0
:1006080048BF40424FF000013EE700BF42004FEABA
:10061800E2014FEA31014FEA02701FBF12F07F4337
:1006280093F07F4F81F06051704732F07F4208BFEE
:10063800704793F07F4F04BF41F40021704730B5F5
:100648004FF4607401F0004521F000411CE700BF41
:1006580050EA010208BF704730B54FF000050AE0C4
:1006680050EA010208BF704730B511F0004502D5C5
:10067800404261EB41014FF4806404F132045FEAC7
:10068800915C3FF4D8AE4FF003025FEADC0C18BF70
:1006980003325FEADC0C18BF033202EBDC02C2F162
:1006A800200300FA03FC20FA02F001FA03FE40EAF4
:1006B8000E0021FA02F11444BDE600BF70B54FF0F8
:1006C800FF0C4CF4E06C1CEA11541DBF1CEA1355D6
:1006D80094EA0C0F95EA0C0F00F0DEF82C4481EA3E
:1006E800030621EA4C5123EA4C5350EA013518BF5E
:1006F80052EA033541F4801143F4801338D0A0FB4B
:1007080002CE4FF00005E1FB02E506F00042E0FBF7
:1007180003E54FF00006E1FB03569CF0000F18BFFD
:100728004EF0010EA4F1FF04B6F5007F64F54074A5
:1007380004D25FEA4E0E6D4146EB060642EAC62138
:1007480041EA55514FEAC52040EA5E504FEACE2EA5
:10075800B4F1FD0C88BFBCF5E06F1ED8BEF1004FA8
:1007680008BF5FEA500E50F1000041EB045170BD24
:1007780006F0004646EA010140EA020081EA030168
:10078800B4EB5C04C2BFD4EB0C0541EA045170BD64
:1007980041F480114FF0000E013C00F3AB8014F1DE
:1007A800360FDEBF002001F0004170BDC4F1000427
:1007B800203C35DA0C341BDC04F11404C4F12005A8
:1007C80000FA05F320FA04F001FA05F240EA020003
:1007D80001F0004221F0004110EBD37021FA04F639
:1007E80042EB06015EEA430E08BF20EAD37070BDF3
:1007F800C4F10C04C4F1200500FA04F320FA05F052
:1008080001FA04F240EA020001F0004110EBD37053
:1008180041F100015EEA430E08BF20EAD37070BDC3
:10082800C4F1200500FA05F24EEA020E20FA04F39C
:1008380001FA05F243EA020321FA04F001F000414B
:1008480021FA04F220EA020000EBD3705EEA430EBC
:1008580008BF20EAD37070BD94F0000F0FD101F0EB
:100868000046400041EB010111F4801F08BF013C24
:10087800F7D041EA060195F0000F18BF704703F062
:100888000046520043EB030313F4801F08BF013DE9
:10089800F7D043EA0603704794EA0C0F0CEA1355A5
:1008A80018BF95EA0C0F0CD050EA410618BF52EA5F
:1008B8004306D1D181EA030101F000414FF0000065
:1008C80070BD50EA410606BF1046194652EA430673
:1008D80019D094EA0C0F02D150EA013613D195EAE7
:1008E8000C0F05D152EA03361CBF104619460AD12F
:1008F80081EA030101F0004141F0FE4141F4700139
:100908004FF0000070BD41F0FE4141F4780170BD28
:1009180070B54FF0FF0C4CF4E06C1CEA11541DBF8D
:100928001CEA135594EA0C0F95EA0C0F00F0A7F88F
:10093800A4EB050481EA030E52EA03354FEA0131BC
:1009480000F088804FEA03334FF0805545EA1313CF
:1009580043EA12634FEA022245EA111545EA106597
:100968004FEA00260EF000419D4208BF964244F12E
:10097800FD0404F5407402D25B084FEA3202B61A4D
:1009880065EB03055B084FEA32024FF480104FF421
:10099800002CB6EB020E75EB030E22BFB61A754695
:1009A80040EA0C005B084FEA3202B6EB020E75EB28
:1009B800030E22BFB61A754640EA5C005B084FEA90
:1009C8003202B6EB020E75EB030E22BFB61A75465D
:1009D80040EA9C005B084FEA3202B6EB020E75EB68
:1009E800030E22BFB61A754640EADC0055EA060E29
:1009F80018D04FEA051545EA16754FEA06164FEA6C
:100A0800C30343EA52734FEAC2025FEA1C1CC0D117
:100A180011F4801F0BD141EA00014FF000004FF0A4
:100A2800004CB6E711F4801F04BF01430020B4F165
:100A3800FD0C88BFBCF5E06F3FF6AFAEB5EB030C1D
:100A480004BFB6EB020C5FEA500C50F1000041EB1A
:100A5800045170BD0EF0004E4EEA113114EB5C04E7
:100A6800C2BFD4EB0C0541EA045170BD41F48011BA
:100A78004FF0000E013C90E645EA060E8DE60CEAC2
:100A8800135594EA0C0F08BF95EA0C0F3FF43BAFDF
:100A980094EA0C0F0AD150EA01347FF434AF95EA96
:100AA8000C0F7FF425AF104619462CE795EA0C0F7A
:100AB80006D152EA03353FF4FDAE1046194622E747
:100AC80050EA410618BF52EA43067FF4C5AE50EA21
:100AD80041047FF40DAF52EA43057FF4EBAE12E711
:100AE8004FF0FF3C06E000BF4FF0010C02E000BFF2
:100AF8004FF0010C4DF804CD4FEA410C7FEA6C5CD5
:100B08004FEA430C18BF7FEA6C5C1BD001B050EA77
:100B1800410C0CBF52EA430C91EA030F02BF90EA62
:100B2800020F0020704710F1000F91EA030F58BF21
:100B3800994208BF90422CBFD8176FEAE37040F083
:100B4800010070474FEA410C7FEA6C5C02D150EA21
:100B5800013C07D14FEA430C7FEA6C5CD6D152EADC
:100B6800033CD3D05DF8040B704700BF84461046A1
:100B780062468C461946634600E000BF01B5FFF7A0
:100B8800B7FF002848BF10F1000F01BD4DF808ED70
:100B9800FFF7F4FF0CBF012000205DF808FB00BF41
:100BA8004DF808EDFFF7EAFF34BF012000205DF89B
:100BB80008FB00BF4DF808EDFFF7E0FF94BF0120E8
:100BC80000205DF808FB00BF4DF808EDFFF7CEFFE9
:100BD80094BF012000205DF808FB00BF4DF808ED28
:100BE800FFF7C4FF34BF012000205DF808FB00BFF9
:100BF8004FEA410C7FEA6C5C02D150EA013C0AD111
:100C08004FEA430C7FEA6C5C02D152EA033C02D102
:100C18004FF0000070474FF0010070474FEA410263
:100C280012F5001215D211D56FF47873B3EB625236
:100C380012D94FEAC12343F0004343EA505311F05D
:100C4800004F23FA02F018BF404270474FF00000EF
:100C5800704750EA013005D111F0004008BF6FF02D
:100C6800004070474FF00000704700BF4A0011D2A3
:100C780012F5001211D20DD56FF47873B3EB6252EE
:100C88000ED44FEAC12343F0004343EA505323FAFA
:100C980002F070474FF00000704750EA013002D16F
:100CA8004FF0FF3070474FF00000704780F0004071
:100CB80002E000BF81F0004142001FBF5FEA41032C
:100CC80092EA030F7FEA226C7FEA236C6AD04FEA2C
:100CD8001262D2EB1363C1BFD21841404840414071
:100CE800B8BF5B42192B88BF704710F0004F40F423
:100CF800000020F07F4018BF404211F0004F41F43F
:100D0800000121F07F4118BF494292EA030F3FD00A
:100D1800A2F1010241FA03FC10EB0C00C3F120031D
:100D280001FA03F100F0004302D5494260EB4000AC
:100D3800B0F5000F13D3B0F1807F06D340084FEA17
:100D4800310102F10102FE2A51D2B1F1004F40EB0C
:100D5800C25008BF20F0010040EA03007047490074
:100D680040EB0000013A28BFB0F5000FEDD2B0FA11
:100D780080FCACF1080CB2EB0C0200FA0CF0AABF34
:100D880000EBC25052421843BCBFD04018437047D2
:100D980092F0000F81F4000106BF80F400000132D8
:100DA800013BB5E74FEA41037FEA226C18BF7FEAAF
:100DB800236C21D092EA030F04D092F0000F08BFF1
:100DC8000846704790EA010F1CBF0020704712F0D8
:100DD8007F4F04D1400028BF40F00040704712F117
:100DE80000723CBF00F50000704700F0004343F07C
:100DF800FE4040F4000070477FEA226216BF0846B2
:100E08007FEA23630146420206BF5FEA412390EA74
:100E1800010F40F4800070474FF0000304E000BF6A
:100E280010F0004348BF40425FEA000C08BF70471B
:100E380043F0964301464FF000001CE050EA0102DF
:100E480008BF70474FF000030AE000BF50EA0102F4
:100E580008BF704711F0004302D5404261EB4101E1
:100E68005FEA010C02BF84460146002043F0B64306
:100E780008BFA3F18053A3F50003BCFA8CF2083A2B
:100E8800A3EBC25310DB01FA02FC634400FA02FC34
:100E9800C2F12002BCF1004F20FA02F243EB02003B
:100EA80008BF20F00100704702F1200201FA02FC9D
:100EB800C2F1200250EA4C0021FA02F243EB020090
:100EC80008BF20EADC7070474FF0FF0C1CEAD052D4
:100ED8001EBF1CEAD15392EA0C0F93EA0C0F6FD095
:100EE8001A4480EA010C400218BF5FEA41211ED073
:100EF8004FF0006343EA501043EA5111A0FB01315F
:100F08000CF00040B1F5000F3EBF490041EAD37133
:100F18005B0040EA010062F17F02FD2A1DD8B3F1AF
:100F2800004F40EBC25008BF20F00100704790F01E
:100F3800000F0CF0004C08BF49024CEA502040EA70
:100F480051207F3AC2BFD2F1FF0340EAC250704736
:100F580040F400004FF00003013A5DDC12F1190F74
:100F6800DCBF00F000407047C2F10002410021FAE6
:100F780002F1C2F1200200FA02FC5FEA310040F1FE
:100F8800000053EA4C0308BF20EADC70704792F077
:100F9800000F00F0004C02BF400010F4000F013AAF
:100FA800F9D040EA0C0093F0000F01F0004C02BFAA
:100FB800490011F4000F013BF9D041EA0C018FE719
:100FC8000CEAD15392EA0C0F18BF93EA0C0F0AD01F
:100FD80030F0004C18BF31F0004CD8D180EA010045
:100FE80000F00040704790F0000F17BF90F0004FDE
:100FF800084691F0000F91F0004F14D092EA0C0FC0
:1010080001D142020FD193EA0C0F03D14B0218BF52
:10101800084608D180EA010000F0004040F0FE4098
:1010280040F40000704740F0FE4040F44000704734
:101038004FF0FF0C1CEAD0521EBF1CEAD15392EAB3
:101048000C0F93EA0C0F69D0A2EB030280EA010CA3
:1010580049024FEA402037D04FF0805343EA11113C
:1010680043EA10130CF000408B4238BF5B0042F19A
:101078007D024FF4000C8B4224BF5B1A40EA0C003F
:10108800B3EB510F24BFA3EB510340EA5C00B3EB71
:10109800910F24BFA3EB910340EA9C00B3EBD10F5F
:1010A80024BFA3EBD10340EADC001B0118BF5FEAB1
:1010B8001C1CE0D1FD2A3FF650AF8B4240EBC250DA
:1010C80008BF20F0010070470CF0004C4CEA50209B
:1010D8007F32C2BFD2F1FF0340EAC250704740F4EA
:1010E80000004FF00003013A37E792F0000F00F0DC
:1010F800004C02BF400010F4000F013AF9D040EA5A
:101108000C0093F0000F01F0004C02BF490011F4ED
:10111800000F013BF9D041EA0C0195E70CEAD153E5
:1011280092EA0C0F08D142027FF47DAF93EA0C0FCC
:101138007FF470AF084676E793EA0C0F04D14B02B0
:101148003FF44CAF08466EE730F0004C18BF31F062
:10115800004CCAD130F000427FF45CAF31F000435C
:101168007FF43CAF5FE700BF4FEA4002B2F1FE4FA9
:101178000FD34FF09E03B3EB12620DD94FEA002351
:1011880043F0004310F0004F23FA02F018BF40422A
:1011980070474FF00000704712F1610F01D1420211
:1011A80005D110F0004008BF6FF0004070474FF0C5
:1011B8000000704742000ED2B2F1FE4F0BD34FF041
:1011C8009E03B3EB126209D44FEA002343F00043B5
:1011D80023FA02F070474FF00000704712F1610FD8
:1011E80001D1420202D14FF0FF3070474FF00000AA
:1011F800704700BF53B94AB9002908BF00281CBF6F
:101208004FF0FF314FF0FF3000F06EB9ADF1080C30
:101218006DE904CE00F006F8DDF804E0DDE902230C
:1012280004B070472DE9F047089E0D4604468E46E7
:10123800002B40F083808A42174647D9B2FA82F3DE
:101248004BB1C3F1200105FA03FE20FA01F19F40DA
:1012580041EA0E0E9C404FEA1748BEFBF8FC1FFA05
:1012680087F908FB1CE20CFB09F0210C41EA024259
:1012780090420AD9BA180CF1FF3180F018819042D7
:1012880040F21581ACF1020C3A44121AB2FBF8F0A4
:1012980008FB102200FB09F1A4B244EA0244A1426F
:1012A80009D93C1900F1FF3280F00381A14240F2D4
:1012B800008102383C44641A002140EA0C401EB107
:1012C8000022DC40C6E90042BDE8F08702B9FFDE33
:1012D800B2FA82F3002B4FD18D1A01214FEA124E38
:1012E8001FFA82F8B5FBFEFC0EFB1C5508FB0CF040
:1012F800220C42EA0545A84207D97D190CF1FF32B4
:1013080002D2A84200F2E98094462D1AB5FBFEF0FD
:101318000EFB105508FB00F8A4B244EA0544A045AA
:1013280007D93C1900F1FF3202D2A04500F2D9805A
:101338001046A4EB080440EA0C40C0E78B4208D9E9
:10134800002E00F0B1800021C6E900050846BDE87E
:10135800F087B3FA83F100294BD1AB4202D3824222
:1013680000F2B980841A65EB030301209E46002E23
:10137800AAD0C6E9004EA7E79F40C3F12002D1409A
:101388004FEA174EB1FBFEF01FFA87F80EFB10115B
:1013980024FA02F29D4000FB08FC2A43150C45EA9A
:1013A8000145AC4504FA03F409D97D1900F1FF3170
:1013B80080F08F80AC4540F28C8002383D44A5EB2C
:1013C8000C05B5FBFEF10EFB115C01FB08F995B2AB
:1013D80045EA0C45A94507D97D1901F1FF3274D2B8
:1013E800A94572D902393D44A5EB090541EA0041F6
:1013F80078E7C1F120078B4022FA07FC4CEA030C7E
:1014080025FA07F44FEA1C4EB4FBFEF91FFA8CF8D4
:101418000EFB194420FA07F309FB08FA8D401D4317
:101428002B0C43EA0444A24502FA01F200FA01F344
:1014380009D91CEB040409F1FF3048D2A24546D96A
:10144800A9F102096444A4EB0A04B4FBFEF00EFB04
:10145800104400FB08FAADB245EA0444A24508D995
:101468001CEB040400F1FF352DD2A2452BD902381C
:10147800644440EA0940A0FB0289A4EB0A044C45F5
:10148800C6464D4619D316D05EB1B3EB0E0264EBD7
:10149800050404FA07F722FA01F31F43CC40C6E912
:1014A80000740021BDE8F087314630460CE78C46D1
:1014B800EBE61046FFE64345E6D2B8EB020E69EBD1
:1014C8000C050138E0E72846D3E711468CE781464A
:1014D800B9E7084673E7084649E7ACF1020C3D4412
:1014E80013E702383C4424E7704700BF704700BF49
:1014F800FEE700BFFEE700BFFEE700BF704700BF82
:10150800704700BF08B504F03DFB074B1B689847C0
:1015180007F098F821F0FCF921F05AFA21F050FB75
:1015280021F0DAFA002008BD7000002030B5012251
:1015380000244FF4803302254FF4E01191B006A83F
:10154800CDE90D5306920A9207930F91CDE90B440A
:10155800CDE90244CDE9044409940194089400F0CB
:1015680007FB0F224FF48063294601A8CDE90254F6
:1015780005940192049300F031FD11B030BD00BF15
:1015880038B50C2200230546094C0A492046C4E90F
:1015980000156261C4E902332361A36100F0B4FE5F
:1015A8002046BDE838400122034900F03FBF00BF94
:1015B800B4CF002000380140F4CF002070B50024DB
:1015C8000268224B88B09A42CDE90444CDE906442A
:1015D80001D008B070BD0122022003254FF4007627
:1015E80003F55843996941F004019961996901F03B
:1015F800040101910199996941F4804199619969BE
:1016080001F48041029102999969114399619B699A
:1016180004A91340039305900D48CDE90625039BC3
:10162800049600F07DF94FF4806304A90848CDE9D9
:10163800043400F075F9252000F0ECFD2A4629460F
:10164800252000F0AFFD08B070BD00BF0038014094
:1016580000080140174B02689A4200D07047164BA9
:10166800B3F900101A880029F8DB5004134905D58E
:1016780009780A2913D000221A80EFE708780D2884
:1016880013D0511C10B489B20D4CC2F30D02C729F6
:101698001980A05401D900221A8010BC70476FEA43
:1016A80042426FEA52421A80704742F480421A80DE
:1016B800704700BF00380140F8020020F4CF002036
:1016C800F8CF002038B5094800F022FF074C204623
:1016D80000F0E8FF2028FAD1054D044C01222946E4
:1016E800204600F0A3FE0028F8D138BDB4CF002072
:1016F800F4CF00200E4B82B09A690E4942F00102E5
:101708009A619A6902F001020092009ADA6942F03D
:101718008052DA61DB6903F080530193019B4B68C7
:1017280023F0E06343F080634B6002B0704700BF72
:10173800001002400000014030B44FF41F054FF084
:1017480000640E4B0E4A19680E4841F001011960F9
:1017580059680A405A601A6822F0847222F480326A
:101768001A601A6822F480221A605A6822F4FE026B
:101778005A609D60846030BC704700BF0010024012
:101788000000FFF800ED00E0114A536803F00C0375
:10179800082B0AD00F4B0E4A0F4852680F49C2F364
:1017A8000312825CD3400B60704753685168C3F3DF
:1017B8008343C90303F1020306D55268920303D495
:1017C800044A02FB03F3E6E7054A02FB03F3E2E7F8
:1017D8000010024000127A00B05D020800000020EC
:1017E80000093D0008B590F821200346022A03D0DD
:1017F800042201209A6308BD0268454811688242A4
:1018080021F00E011160116821F0010111604149B8
:1018180024D98A4255D014318A425ED014318A4282
:101828005DD014318A4253D014318A4260D01431C9
:101838008A4263D0824267D001F567718A4240D0FC
:1018480014318A4249D014318A4248D014318A422C
:1018580014BF4FF480324FF4805233E08A4222D0D2
:1018680014318A4237D014318A423BD014318A422B
:101878002BD014318A4238D014318A423BD082426C
:101888003FD001F567718A420DD014318A4222D0C7
:1018980014318A4226D014318A4214BF4FF4803260
:1018A8004FF4805200E001221B494A604FF48071D6
:1018B8005A6B19841AB118469047002008BD104683
:1018C80008BD012215494A60F0E74FF48052EBE762
:1018D8004FF48052F6E71022E6E71022F2E74FF4C1
:1018E8008072EFE74FF48072DEE74FF48032DBE777
:1018F8004FF48032E6E74FF48012D5E74FF48012B8
:10190800E0E74FF08072CFE74FF08072DAE700BF70
:10191800800002400800024000000240000402402B
:101928002DE9F04F0C6885B0002C00F0A28000264D
:10193800DFF828C23346DFF82882824FDFF824E236
:1019480004E0013334FA03F200F0938001229A4054
:1019580032EA040902EA0405F3D14C68122C00F2B9
:101968008B80122C0CD8DFE804F093C6C30A0B0B4B
:101978000B0B0B0B0B0B0B0B0B0B0BC0BD00002643
:10198800FF2D00F28C8081464FEA830A0F24D9F894
:10199800002004FA0AFB22EA0B0206FA0AFA42EAD3
:1019A8000A02C9F80020D1F8049019F0805F00F00D
:1019B8009780DCF818A023F003024AF0010ACCF85B
:1019C80018A0DCF818A002F180420AF0010ACDF84C
:1019D8000CA002F5803203F0030ADDF80CB04FEAE0
:1019E8008A0AD2F808B004FA0AF42BEA040440453B
:1019F80001941BD0544CA04200F08880534CA04264
:101A08007BD0534CA04200F08A80524CA04200F098
:101A18008F80514CA0420CBF4FF0050B4FF0060BC6
:101A2800019C0BFA0AFA44EA0A040194019C19F48D
:101A3800803F94603A6814BF2A43AA433A607A68A0
:101A480019F4003F14BF2A43AA437A60BA6819F40C
:101A5800801F14BF2A43AA43BA6019F4001FFA680A
:101A68003BD01543FD600C68013334FA03F27FF470
:101A78006DAF05B0BDE8F08F744509D016D9DFF811
:101A8800E8904C4504D009F580394C457FF478AF8F
:101A98008C68DCB9FF2D4FF004067FF674AF4FEA6F
:101AA800830AAAF1200A00F104096FE7DFF8BC9065
:101AB8004C45EDD009F570294C45E9D0A9F58019B8
:101AC8004C457FF45DAF8C68002CE3D0012C4FF0BF
:101AD80008060CBF0261426152E722EA0505FD6073
:101AE8000C682EE7CE680C364AE7CE68043647E71E
:101AF800CE68083644E7CE6842E74FF0020B019CF7
:101B08000BFA0AFA44EA0A0401948FE74FF0010B32
:101B1800019C0BFA0AFA44EA0A04019486E74FF09A
:101B2800030B019C0BFA0AFA44EA0A0401947DE7C4
:101B38004FF0040B019C0BFA0AFA44EA0A040194D8
:101B480074E700BF00040140000C01400010014090
:101B58000014014000180140001C01400010024020
:101B6800000801400000221000003110000012108F
:101B7800002800F0C3812DE9F04103680446DD0721
:101B880082B035D5A6494A6802F00C02042A00F052
:101B9800EF804A6802F00C02082A00F0E5806368CA
:101BA800B3F5803F10D0002B00F00D81B3F5A02FC6
:101BB80000F08F819A4B1A6822F480321A601A68F2
:101BC80022F480221A6004E0954A136843F48033B3
:101BD800136000F095FE924E054605E000F090FE79
:101BE800401B642800F2EB8033689A03F6D523681B
:101BF8009F0728D58A4A516811F00C0F00F08E8093
:101C0800516801F00C01082900F084802369002B39
:101C180000F025810122834B814E1A6000F070FE8E
:101C2800054605E000F06CFE401B022800F2C78064
:101C380033689807F6D53368626923F0F80343EAF6
:101C4800C203336023681A071FD45D0741D5744B5C
:101C5800DA69D0007DD50025734B1A68D10540F1AB
:101C68009D80E368012B00F00B81002B00F0C580FC
:101C7800052B6B4B1A6A00F0398122F001021A62B7
:101C88001A6A22F004021A62FFE0A369002B50D0FE
:101C98000122664B624E1A6000F032FE054605E0EE
:101CA80000F02EFE401B022800F28980736A9B0711
:101CB800F6D55F4B5F4A1B68A2FB03235B0A0193BF
:101CC80000BF019B5A1E0192002BF9D123685D07C2
:101CD800BDD4E069D0B1524D6A6802F00C02082AFE
:101CE80000F0E68002284FF00001534A00F0088116
:101CF800116000F005FE2C46054604E000F000FEE9
:101D0800401B02285BD823689B01F7D4002002B04F
:101D1800BDE8F0815268D6033FF578AF404A1268B3
:101D280095072FD52269012A2CD0012002B0BDE8E1
:101D3800F0813E4A3A4E136000F0E2FD054604E0A9
:101D480000F0DEFD401B022839D8736A9F07F7D4DC
:101D5800BCE7DA69012542F08052DA61DB6903F0F9
:101D680080530093009B77E74A68D0037FF517AF4D
:101D78002B4A126891037FF53BAF6268002A7FF413
:101D880037AFD2E7264960690A6822F0F80242EACA
:101D9800C0020A601A077FF558AF76E71A681F462F
:101DA80042F480721A6000F0ABFD06463B68DA0523
:101DB8003FF557AF00F0A4FD801B6428F6D9032037
:101DC80002B0BDE8F08103F1804303F504331A68DB
:101DD8001E4622F480321A601A6822F480221A60A1
:101DE80000F08EFD054604E000F08AFD401B6428E3
:101DF800E5D833689B03F7D4F9E603F1804303F58C
:101E080004331A6A1F4622F001021A621A6A41F262
:101E1800883822F004021A6200F072FD064612E0C9
:101E2800001002400000424200700040800442421C
:101E380000000020D34D62106000424200F060FDB7
:101E4800801B4045BBD83B6A9807F7D4002D3FF468
:101E580040AF444AD36923F08053D36139E7424AFB
:101E6800404E136000F04CFD054604E000F048FDCC
:101E7800401B0228A3D833689907F7D42368E2E601
:101E8800384A136A43F00103136200F039FD41F246
:101E980088380646334F04E000F032FD801B404589
:101EA8008DD83B6A9B07F7D5002D3FF412AFD0E7DA
:101EB80001283FF42CAF6B68226A03F48031914209
:101EC8007FF433AF606A03F47013181A18BF012047
:101ED8001DE703F18043A3F53C331A6842F48022DE
:101EE8001A601A6842F480321A6072E642F00402FC
:101EF8001A621A6A42F001021A62C6E701207047A4
:101F0800116000F0FDFC064605E000F0F9FC801BBE
:101F180002283FF654AF2B689901F6D4236AB3F52B
:101F2800803F05D16A68A16822F400320A436A60DA
:101F380001200C4D616A6A680B4322F474120B4944
:101F480013436B60086000F0DBFC2C46054605E097
:101F580000F0D6FC401B02283FF631AF23689A01F7
:101F6800F6D5D3E60010024000004242600042422B
:101F780040F2012286B0154B0DF1180CADF8042083
:101F88000FCB0CE90F00124A536803F00C01082923
:101F980002D0104806B07047C3F383416144DB03A5
:101FA80011F8101C0CD553680A48C3F3404300FBD2
:101FB80001F0634413F8143CB0FBF3F006B070472B
:101FC800054800FB01F006B0704700BFC85D020875
:101FD8000010024000127A0000093D00002800F0BD
:101FE8008C80494A2DE9F0411368044603F0070341
:101FF8008B420D460CD2136823F007030B43136082
:10200800136803F007038B4202D00120BDE8F0817A
:102018002368980714D5590704D53C494A6842F4FF
:10202800E0624A601A0704D538494A6842F46052A7
:102038004A603649A0684A6822F0F00202434A60C2
:10204800DF0720D56268314B012A1B6857D0022A66
:1020580050D09907D9D52D4E41F28838736823F0AE
:1020680003031343736000F04BFC074604E000F0E1
:1020780047FCC01B404545D87368626803F00C03F1
:10208800B3EB820FF3D1204A136803F00703AB4286
:1020980009D9136823F007032B431360136803F06F
:1020A8000703AB42B1D123685A0706D51749E06840
:1020B8004A6822F4E06202434A601B0707D5134AC4
:1020C8002169536823F4605343EAC1035360FFF75F
:1020D8004FFF0E4B0E4A5B680E49C3F30313D35CE4
:1020E8000D4A20FA03F30868136000F0F3FB0020A0
:1020F800BDE8F0819801AED487E7012070479E03C0
:10210800A9D482E7032081E70020024000100240A2
:10211800B05D02080400002000000020044B0549BF
:102128005B68054AC3F30223CB5C1068D84070474C
:1021380000100240C05D020800000020044B054961
:102148005B68054AC3F3C223CB5C1068D84070476C
:1021580000100240C05D020800000020074A08B5D0
:102168001368032043F01003136000F009F80020FF
:1021780000F0B0FBFFF7BEFA002008BD00200240C7
:102188004FF6FF01064A0302D06803F4E0630840F3
:10219800034343F0BF6343F40033D360704700BF89
:1021A80000ED00E0194B30B4DB68C3F30223C3F140
:1021B8000705042D03F1040428BF0425062C19D9AA
:1021C8004FF0FF34033B9C4022EA04024FF0FF34F7
:1021D800AC4021EA04019940002841EA02010CDBE5
:1021E800090100F16040C9B200F5614080F80013B0
:1021F80030BC704700221346E8E7054B00F00F009B
:102208000901C9B20344197630BC704700ED00E0FB
:10221800FCEC00E0002807DB012300F01F01034A63
:102228008B40400942F82030704700BF00E100E0D1
:1022380038B504460368C0681969A26821F440519A
:1022480001431961D968D4E9045021F4B0512A43F3
:1022580021F00C0102430A43DA605A69A069124965
:1022680022F4407202438B425A611AD0FFF756FF9C
:10227800636800EB80009B0000EB8000B0FBF3F08C
:1022880064230A492468A1FB0052520903FB120087
:1022980000013230A1FB0030120102EB5010A060A7
:1022A80038BDFFF74BFFE3E7003801401F85EB51CE
:1022B8002DE9F04107460E4690461D463B6801E071
:1022C8006A1C06D11C6836EA0402F9D10020BDE870
:1022D800F08135B100F014FBA0EB08008542EDD287
:1022E8003B6820210024DA68032022F4D072DA60E7
:1022F8005A6922F001025A6187F8391087F8384084
:1023080087F83A10E3E700BF60B338B590F8393082
:10231800044603F0FF0203B32423226884F839300B
:10232800D368204623F40053D360FFF781FF0025CC
:102338002021236828461A6922F490421A615A69B2
:1023480022F02A025A61DA6842F40052DA60E56340
:1023580084F8391084F83A1038BD80F83820FFF72F
:102368002DF9D9E7012070472DE9F041044690F88E
:102378003900202854D10E4600294CD01546002A91
:1023880049D01F4694F83830012B49D02123002129
:102398000122E16384F8382084F8393000F0B0FA7B
:1023A800E584E38C80469BB2A5845BB926E0FFF701
:1023B8007FFF002837D116F8012B23685A60E18C7B
:1023C80089B2D9B1E58CA368013DADB2B3F5805FA0
:1023D80042463B464FF080012046E584E7D1FFF7AF
:1023E80067FF00BB338821682269C3F308034B6089
:1023F800A2B9E18C023689B20029E3D13B464246B4
:1024080040212046FFF754FF68B9202384F838009C
:1024180084F8393000E00120BDE8F0810136CEE7CC
:102428000220BDE8F0810320BDE8F08190F83A3041
:10243800202B22D1F9B1F2B190F83830012B1CD001
:1024480030B4002322250468C28580F83830C3637D
:1024580080F83A50E568828545F480758162E560C8
:102468006269184642F001026261E36843F02003A2
:10247800E36030BC7047012070470220704700BFFE
:10248800704700BF08B58368B3F5805F17D003694C
:1024980073B10368826A5B68511C03F07F03816231
:1024A8001370C38D013B9BB2C3859BB1002008BD4F
:1024B8000268836A5268591C81621A70F1E70269DE
:1024C800836ADAB902685268C2F3080223F8022B59
:1024D8008362E6E720210368DA6822F02002DA60E6
:1024E800DA6822F48072DA605A6922F001025A61CD
:1024F80080F83A10FFF7AEF8002008BD026852686D
:10250800D2B223F8012B8362CBE700BF704700BF2C
:10251800036870B51A6804461607DD6859690CD156
:10252800960601D5A9064DD4100601D5290651D421
:10253800560601D5680669D470BD01F0010105F49D
:1025480090700843F0D0D60705D5E80503D5E06BB1
:1025580040F00100E063560729D561B1E16B9007AF
:1025680041F00201E16340F18380E16B41F0040135
:10257800E163110721D4E16B0029DDD0920609D56A
:10258800AE0607D594F83A20222A03D12046FFF751
:1025980079FF23685A69E56B02F0400205F00805E7
:1025A80015433ED12046FFF7B1FFE56370BD96079E
:1025B80057D41007DFD50029DDD0E16B41F00801C1
:1025C800E163D8E790F83A30222BB5D1BDE87040E6
:1025D800FFF758BF94F83920212AADD1A268B2F587
:1025E800805F226A47D0511C216212785A60E28CBF
:1025F800013A92B2E284002A9ED1DA6822F080027F
:10260800DA60DA6842F04002DA6070BD2021DA68E8
:10261800204622F04002DA6084F83910FFF730FFD4
:1026280070BD2021DA6822F49072DA605A6922F0CB
:1026380001025A6184F83A105A69550614D55A6944
:10264800606B22F040025A6170B1114B4363FFF78F
:10265800C9F800283FF470AF606BBDE87040436B69
:102668001847002981D186E72046FFF74FFF70BD44
:102678001107A2D47FE711882069C1F308015960C6
:1026880010B902322262B2E701322262AFE700BF1C
:102698009D26000808B50023406AC385C384FFF758
:1026A80035FF08BD90F8392090F83A00104370477C
:1026B8008B6870B4082B0CBF402400244E680A684D
:1026C8003343CE6850F8225033430E6925F0010594
:1026D800334340F82250D1E9056533432B43D1E910
:1026E800076533432B43D1E9096533432B43D1E9CC
:1026F8000B65496B33432B430B4350F82250044975
:1027080029400B43234340F8223070BC0020704717
:102718008000F0FF70B40B688D694C688E682B439D
:1027280043EA0413CD680C6900EB820243EA0623EE
:10273800486943EA05435168013C43EA04530238B7
:1027480043EA006301F040410B43002070BC536032
:10275800704700BFB3F5804F05D06FF0704340F865
:1027680022300020704770B40B688D694C688E6801
:102778002B4343EA0413CD6850F82240054943EA45
:10278800062343EA054321400B4340F8223070BC3E
:10279800002070470000F0CF48B370B590F8413082
:1027A80015460E46044603F0FF02DBB1214651F8F8
:1027B800080BFFF77DFF3146A2682068FFF7AAFFE4
:1027C800D4E9010229460125236BFFF7C3FFA1685D
:1027D8002268002052F821302B4342F8213084F837
:1027E800415070BD80F8402003F066F9DEE7012013
:1027F800704700BF00487047FC020020004870473F
:10280800FCA2002038B5FFF7A9FCFEF78FFEFEF703
:10281800BBFF4FF4E130FEF7B3FE114B114A1B68C2
:10282800A2FB03239B09013BB3F1807F0BD2FF215D
:10283800002507200C4A0D4C11700D49A2F60F52C5
:1028480025600860136000F0BDF8FFF7D3FF044669
:10285800FFF7D4FF01462046BDE8384001F0ACB888
:1028680000000020D34D621023ED00E018E000E0E6
:1028780010E000E008B501F001F800F0D7FEBDE86F
:10288800084001F009B800BF0D23F0B583B0044635
:102898008DF8073000F04AFEC0B10D4F261807E04A
:1028A800012329461A463846FFF75EFDB4420DD08B
:1028B800237825460A2B04F10104F1D10123384677
:1028C8001A460DF10701FFF74FFDE9E703B0F0BD28
:1028D800B4CF00200020074910B40B68064C074A03
:1028E80043F080730B602060136810BC43F0010351
:1028F80013607047FCED00E0041000E0001000E0F9
:102908004FF47A70044A054B126800FB02F0A3FBEF
:102918000030800E704700BF041000E0B5FA9BEE4F
:1029280070B500241249134E0B68134A43F08073A4
:102938000B6034601368054643F001031360FFF72A
:1029480017FB31460D4A3368A2FB0002920C05FBC7
:1029580002F51A460B689A42FBD003EB040025BF28
:1029680004F1FF34E418841AA41AAC42F1D370BD00
:10297800FCED00E0041000E0001000E083DE1B43E3
:102988000020704738B50A4D0A4B9D420BD2013BD7
:102998005B1B23F0030304332C461D4454F8043B0B
:1029A8009847AC42FAD1BDE83840FEF7ABBD00BF4E
:1029B800685D02086C5D02080020704700207047BF
:1029C8000020704738B5084D084B9D420BD2013B9B
:1029D8005B1B23F0030304332C461D4454F8043BCB
:1029E8009847AC42FAD138BD645D0208685D0208B8
:1029F8000A23142200B583B0CDE9003205494FF40B
:102A080000630022044800F0E1FA03B05DF804EB2B
:102A180000F0CABB8D290008DC5D020808B5FDF787
:102A2800FFFBFFF7EFFE00F0BBFD00F001FA00F03E
:102A380035FEFFF7DDFF00F001FA00F06DFF00F052
:102A480053FE002008BD00BF08B5FFF7E7FF0020D0
:102A580008BD00BF2DE9F041044690460A460A2108
:102A68001F46069E9DF81C5000F0B4FB002225F07E
:102A7800010504F11C036574C4E90987C4E9073337
:102A8800E6622263BDE8F08110B50446FDF7C8FB95
:102A9800D4E907134B601960637C04F11C0223F02E
:102AA800010322626374E261FDF7BEFB204600F079
:102AB800CDFB002010BD00BFF8B50E4601460A2028
:102AC80015461F469DF8184000F0D2FB58B1002368
:102AD80024F00104447400F11C04C0E90965C0E94C
:102AE8000B73C0E90744F8BD2DE9F8430746FDF725
:102AF80097FBD7E9072353601A607B7C07F11C0812
:102B080023F001037B74C7F82080C7F81C80814636
:102B180000F086FD7A7C224B12F0040F214AF96AF4
:102B280008BF13465E680144B342396335D06FF07D
:102B380000401D461B685A699142A2EB010401D06E
:102B4800844203D3B342F4D135461B68C3F80480EA
:102B58001549FB61C5F800807A7C0B6842F00102D8
:102B6800013348463D627A740B60FDF75DFB7B7C60
:102B78005B0703D50D4B1B78012B02D00020BDE865
:102B8800F8830B4890F83C3003F00F03022BF5D183
:102B980000F0E8FA00F0C0FDF0E735461B68D5E71D
:102BA80000A3002008A30020FCA2002008000020A9
:102BB80010A30020437CDB0713D510B50446FDF7AE
:102BC8002FFBD4E907134B601960637C04F11C02E6
:102BD80023F0010322626374E261FDF725FB002004
:102BE80010BD4FF0FF30704770B50C4605461646CD
:102BF800FDF716FB042C06D8DFE804F013031921AF
:102C08000900EB6A3360FDF70FFB002070BD6B7C99
:102C180013F0010318BF01233360FDF705FB002003
:102C280070BD3368EB62FDF7FFFA002070BD6B7C66
:102C380023F002036B74FDF7F7FA002070BD6B7C7C
:102C480043F002036B74FDF7EFFA002070BD00BF7C
:102C58002DE9F04782B06E46CDE9006600F0E0FC51
:102C68000546FDF7DDFADFF8A8A08146DAF800404E
:102C7800544546D06FF000476069A4F11C08281A33
:102C8800B8420AD33DE0DAF800405445A4F11C08E4
:102C980037D06369ED1ABD4233D2D4E900235360BB
:102CA8001A6014F80B3C24609A075CBF23F00103F8
:102CB80004F80B3C009BA268E0685C60C4E900363D
:102CC8000094904700F0ACFC009B0546B342DAD074
:102CD800D4E9002353601A6014F80B3C646003F0D5
:102CE8000302032A2460CED123F00103404604F8EE
:102CF8000B3CFFF7F9FEDAF800405445A4F11C0834
:102D0800C7D14846FDF790FA02B0BDE8F08700BF8A
:102D180008A300202DE9F04782B06E46CDE9006691
:102D2800FDF77EFA2A4F05463C68BC4249D06FF051
:102D380000494FF0000ADFF89C8002E03C68BC4282
:102D48003FD000F06DFC6369C01A484539D2D4E918
:102D5800002353601A6014F80B3C24609A075CBF88
:102D680023F0010304F80B3C009B28465C60C4E98F
:102D7800003688F800A00094FDF756FAD4E902302E
:102D88009847FDF74DFA0122009B0546B34288F8A3
:102D98000020D3D0D4E9002353601A6014F80B3C08
:102DA800646003F00302032A2460C7D123F00103FF
:102DB80004F80B3CA4F11C00FFF796FE3C68BC42EB
:102DC800BFD12846FDF730FA02B0BDE8F08700BF52
:102DD80000A300200800002070B56FF00046134DD6
:102DE80006E000F01DFC201AB0421BD3FFF792FF4B
:102DF800FDF716FA2B68AB420BD05C69FDF714FAA5
:102E0800631CEED100F0DCF800F05CF900F084FC03
:102E1800ECE7FDF709FA00F0D3F800F053F900F0F9
:102E28007BFCE3E700F094F9E0E700BF00A3002093
:102E3800014BC3E90033704708A300200A20022190
:102E48004FF4007230B50B4B0B4D85B00B4CCDE9F0
:102E580002100192009328460023094A0949C4E94F
:102E6800004400F069F8284605B0BDE8304000F09D
:102E78009BB900BFA0A3002010A3002000A300203E
:102E8800E12D0008E45D020838B50446FDF7C8F9ED
:102E9800D4F8883005460BB1204698472846BDE847
:102EA8003840FDF7C1B900BF38B5184B1C68FDF7AD
:102EB800B7F905462046FFF7E7FF204600F08AFCF1
:102EC800042304F1540084F83C30FFF7DDFD20466C
:102ED80000F01EFA01280ED00D4B04F11C011A68EF
:102EE80019605160C4E9072300F016FC2846BDE8C4
:102EF8003840FDF799B9204600F0A8F900F00CFC1D
:102F08002846BDE83840FDF78FB900BF2CA6002041
:102F1800C8D1002038B5D0E907416FF0010500F1AC
:102F28001C02856361600C60C0E9072200F02CFC7C
:102F3800BDE8384000F0F0BB2DE9F04704461D46D7
:102F4800164682B00A46DDE90A9A01219DF83080CA
:102F58000D9F00F03FF904F11C035246C4E90A65CD
:102F6800C4E9073348462321C4E90C9A00F07CFAE7
:102F7800D4E90C23D4E90A01043B1A440E4B00F0AF
:102F88004BFE00256062C4E91377C4E9225584F832
:102F98003E8084F83D802564A56384F83C5004F1A4
:102FA800540023462146CDE90055044AFFF752FD57
:102FB800284602B0BDE8F087B12E00081D2F000892
:102FC800014B1868704700BF2CA600202DE9F04778
:102FD800884682B00146012017461D469DF828A064
:102FE800DDF82C9000F044F9044680B3284600F040
:102FF80025FD064678B304F11C032A462321C4E9BB
:103008000733C4E90A87C4E90C0500F02DFAD4E9AE
:103018000C23D4E90A01043B1A44114B00F0FCFDCF
:1030280000226062C4E922222264A26384F83C2060
:10303800C4E9139984F83EA084F83DA02346CDE95D
:1030480000222146074A04F15400FFF703FD2046F9
:1030580002B0BDE8F087204600F044F93446F6E7B0
:10306800B12E00081D2F000810B5FDF7D9F8134B35
:1030780001461A6892F83C3003F00F03012B03D184
:10308800D2E907439C4204D10846FDF7CDF8002059
:1030980010BD63601C6092F83D40094B02F11C01B1
:1030A800116203EBC4035C68216014625960D36148
:1030B800FDF7BAF800F030FB002010BD2CA6002068
:1030C800C0D0002038B590F83C3003F00F03012B36
:1030D80017D10446FDF7A4F80546204600F07AFB10
:1030E80094F83C3004F1540023F00F0343F002033A
:1030F80084F83C30FFF75EFD2846FDF795F8002080
:1031080038BD4FF0FF3038BD70B582B00190FDF783
:1031180087F805460D4B1C6804F154062046FFF756
:10312800D1FF002101AA3046FFF75EFD3046FFF7C8
:10313800DBFC2846FDF778F800F0EEFAA36B0020D8
:10314800023304BF0023A36302B070BD2CA6002085
:10315800FFF7DABF08B500F083FABDE80840FFF7CB
:10316800D3BF00BF38B590F83C3003F00F03022BF3
:1031780017D10446FDF754F8D4E90712054604F1BF
:103188001C034A6004F154001160C4E90733FFF7D7
:1031980011FD2846FDF748F8204600F0F5FA002012
:1031A80038BD4FF0FF3038BD012210B5022490F829
:1031B8003E1080F83C408A4080F83D100264FFF7DA
:1031C800D1FF034B1B680BB100F0A6FA002010BD1D
:1031D8002CA600202DE9F84307460D46914600230A
:1031E800194C02E00133062B29D01E01A05DA8422C
:1031F800F8D104EB060800F015FB0436D8F80430C3
:103208003444A34202D01B68A342FCD165F07F0579
:1032180000F016FB4946102238463D7400F06EF95E
:10322800FCF7FEFFD8F8042007F1140353607A6115
:10323800C8F80430BC61BDE8F843FCF7F5BF00F0FE
:10324800F1FA00235B68FFDE0C000020002310B5B4
:1032580004460374FCF7E4FFD4E9051204F11403EF
:103268004A601160C4E90533BDE81040FCF7DCBFD3
:103278002DE9F843054689460023194E02E001333B
:10328800062B2AD01C01325DAA42F8D106EB0408AD
:10329800D8F80C0000F0D2FB0746D8B10021D8F8C6
:1032A8000C2000F0E1F8002310227B7449463846D0
:1032B8003D7400F023F90434FCF7B2FFD8F8042079
:1032C80007F11403344453607A61C8F80430BC61D0
:1032D800FCF7AAFF3846BDE8F8830023DB68FFDE69
:1032E8000C000020002310B504460374FCF798FF77
:1032F800D4E9051204F114034A601160C4E90533E6
:10330800FCF792FF2046BDE8104000F031BC00BF3A
:1033180090F91000C00F704770B504461D46164658
:103328000A460221FFF756FF04F11C0365740020CA
:10333800C4E90733A68470BD2DE9F041044682B084
:103348000191FCF76DFFA68C002E49D1019B002B43
:103358004ED00746FFF734FE866394F81180054681
:1033680004F11C06FFF7AEFEB8F1000F2DD0B8F13E
:10337800010F13D1E3699E4227D095F83D1002E072
:103388001B689E4221D093F821208A42F8D95968B7
:1033980005F11C020A6029625A60EB61019B002B4F
:1033A80008DC3846FCF740FF00F0B6F9A86B02B01D
:1033B800BDE8F08105F154042046002101AAFFF779
:1033C80013FC2046FFF790FBEBE7226A05F11C038C
:1033D80013602A622362019BEE61002BE1DDE9E7BD
:1033E800013EA684FCF720FF002002B0BDE8F08172
:1033F800FCF71AFF6FF00100D9E700BF38B50446A3
:10340800FCF70EFF234653F81C2F9A420BD00546B3
:10341800A2F11C00FFF7A6FE2846FCF705FF00F006
:103428007BF9002038BD4FF6FF72A38C934205D07C
:103438000133A384FCF7F8FE002038BDFCF7F4FE46
:103448006FF0020038BD00BF10B5044600F032FA34
:1034580010B1044B1C6010BDFFF7B2FD0028F8D076
:10346800846310BDA0A50020032A70B42FD9830758
:103478003AD1CCB244EA04240F2A44EA044439D9A4
:10348800A2F1100323F00F0606441D09203600F1AF
:10349800100343E9044443E902441033B342F8D12A
:1034A800013512F00C0F00EB051502F00F061ED0C7
:1034B800331F23F0030304332B4445F8044B9D4288
:1034C800FBD106F00302541E2AB970BC70470346AC
:1034D800541E002AF9D0621C1A44C9B203F8011B11
:1034E8009342FBD170BC70470346541EF3E72B464A
:1034F8003246EDE716460546DAE700BFAAB130B412
:1035080003464C1E01E0013A0DD014F8011F1D4678
:1035180003F8011B0029F6D1012A04D02A4403F834
:10352800011B9A42FBD130BC70477047037833B116
:10353800034613F8012F002AFBD1181A70471846C2
:10354800704700BF0FB430B583B006AB53F8042BF7
:103558007F211148019320F091F8104C0346206810
:1035680088B1058C7F2B45F0400228BF7F230021BE
:103578000284094A00F0ECFB23681D8403B0BDE80F
:10358800304004B070470448FFF77EF903B0BDE847
:10359800304004B0704700BFA8A50020A4A50020B3
:1035A80000B50A4883B0FFF7CDFF0948FFF7CAFF07
:1035B800084A05230092032101220748FFF7C2FFAA
:1035C800064803B05DF804EBFFF7BCBFEC5D0208EA
:1035D800F85D02083C5E02081C5E0208485E0208AC
:1035E80060B110F0FF030AD110F47F4F0B4B0FD1DD
:1035F80010F47F0F07D1000E185C19307047074A86
:10360800D05C01307047C0F30740185C1130704738
:10361800C0F30720185C0930704700BF745E0208C9
:10362800014B1868704700BF28A600200B4A08B550
:10363800136801331360FFF7C3FC036D013B036597
:103648001BB1BDE80840FFF703BBC36C0365FFF778
:103658000BFDBDE80840FFF7FBBA00BF28A6002015
:10366800002815DB4FF47A720B4910B481FB00C4B3
:10367800C317C3EBA41302FB03F3C01A02FB00F049
:1036880000F2E730A1FB002010BC03EB901070475C
:103698004FF0FF30704700BFD34D621000210C4A35
:1036A8000C4B30B4118003F58072C3E90033083342
:1036B8009342FAD11F250022074C08480849094BB4
:1036C8002570C3E9003330BC02600A60704700BF50
:1036D80030A60020C0D00020C0D100202CA6002099
:1036E800C4D10020C8D1002008B5084B1868FFF7DE
:1036F80077FF074B013853F83000064BA0F11C0246
:103708001A600830BDE80840FCF7BFBDC4D10020EE
:10371800C0D000202CA6002070B5FCF781FD144B0A
:103728000446B3F90030BBB9124B1868FFF758FFCD
:103738001149431E114A51F833101068A1F11C05B4
:10374800A84209D00E4E15600E4D32782B70083104
:10375800243032B1FCF76BFD2046BDE87040FCF721
:1037680063BDFCF764FD2046BDE87040FCF75CBD16
:1037780030A60020C4D10020C0D000202CA60020F4
:10378800D0D10020C0D1002070B50446FCF748FD18
:1037980094F83C2094F83D500C4B22F00F0242F074
:1037A800010284F83C2003EBC5035E68084904F174
:1037B8001C05226C356026625D600D68E3612A4352
:1037C800BDE870400A60FCF72FBD00BFC0D00020E4
:1037D800C4D1002038B50446FCF722FDD4E907130C
:1037E8004B60196094F83D100C4B04F11C02E26127
:1037F80053F8315003EBC1039D42226203D0BDE868
:103808003840FCF711BD064A216C136823EA01030E
:103818001360BDE83840FCF707BD00BFC0D00020EA
:10382800C4D1002008B5FCF7FBFC044A1388013317
:103838001380BDE80840FCF7F7BC00BF30A60020A5
:1038480008B5FCF7EDFC0B4A1388013B1BB2002BB3
:10385800138003DDBDE80840FCF7E6BC00231380B5
:10386800FCF7E2FC044B1B681BB1BDE80840FFF7FE
:1038780053BF08BD30A600202CA6002008B5FCF7D1
:10388800CFFC044A13780133DBB21370BDE808405B
:10389800FCF7CABCD0D1002008B5FCF7C1FC044A2B
:1038A8001378013BDBB21370BDE80840FCF7BCBCE1
:1038B800D0D1002010B5FCF7B3FC034B1C78FCF703
:1038C800B3FCE4B2204610BDD0D1002070B50F4E35
:1038D80011E033681D465A6855F81C1958694A6042
:1038E8001160C3E9003300F043F92846FFF7FAFCFA
:1038F8002046FCF799FCFCF793FC33680446B34276
:10390800E7D1BDE87040FCF78FBC00BFC8D10020EC
:1039180008B5FFF7DBFFFCE720201F214FF480727A
:1039280010B5094B094C84B0CDE9021001920093FF
:1039380020460023064A0749FFF7FEFA204604B04E
:10394800BDE81040FFF730BCC4A6002034A6002014
:1039580019390008745F0208144A4368126830B4C1
:103968001344984210D0598871B91149096899428D
:103978000AD010490C689C425C6808BF0860446023
:103988005B68811A134499608168531898420BD078
:103998005C884CB9074C2568854208BF2360446899
:1039A8005C6043681A44916030BC7047C8A7002027
:1039B800C4A70020F4A7002070B521F00305182D36
:1039C8000A4606D9C41C24F00304A5F11803A3422F
:1039D80005D2BDE8704001461048FFF7B3BD4FF46B
:1039E800F55000230E492D1B0E4EA5F10C02206048
:1039F800183D0D486260A3603560A1500B4DA118B9
:103A0800C1E901220160012209490A482C60FFF737
:103A180083FC2A68084B1A6070BD00BF845F0208E7
:103A2800A01E0100FCA70020C4A70020C8A70020F2
:103A38007C5F0208CCA70020F4A70020002863D0F0
:103A48002DE9F041434C0330236820F003009842ED
:103A58002AD80C2838BF0C2007464FF0FF313E48C3
:103A6800FFF76AFCDFF804813C4BD4F800E0D8F893
:103A780000C01968AEEB0700ACEB010398420BD904
:103A8800CC18628872B96268D51AA5F10C06BE42D4
:103A98000DD213469842F3D82F48FFF7AFFC002009
:103AA800BDE8F0816368E9E70020BDE8F08107F12F
:103AB8001800864229D34FF4F555012607F10C006A
:103AC80018440D500D18C5E9012360606B680EF1AC
:103AD8000C0E7345224D18BF5B18668018BF98609E
:103AE800204E2B6832680C333B4493422B602FD80E
:103AF8004FF4F553A445238013D01748FFF77EFCF5
:103B080004F10C00BDE8F08170470126144B154AFA
:103B180018686680054410681D60854288BF156076
:103B2800E6E7BCF80230002BE7D00F4B00221868FC
:103B380007E0DCF80430012201EB030CBCF802308A
:103B48001BB18445F5D1002AD7D0C8F800C0D4E706
:103B58003360CDE7FCA70020CCA70020C8A7002031
:103B680000A80020F8A70020C4A70020F4A7002080
:103B7800002841D070B5214D04462B68834203D8F4
:103B88001F4B1B68834200D870BD4FF0FF311D48A2
:103B9800FFF7D2FB34F80A3CA4F10C0623B134F841
:103BA8000C3CB3F5F55F0AD01748FFF7CBFC31465C
:103BB80034F80C3C34F80A2C1448FFF7C3FC0022F4
:103BC8004FF4F551124B24F80A2C1A6824F80C1CEF
:103BD8001049964254F8080C2A6838BF1E600B68D2
:103BE800B21A1B1A134430460B60FFF7B5FEBDE846
:103BF80070400448FFF702BC704700BFC8A7002008
:103C0800C4A70020CCA70020C05F0208DC5F020820
:103C1800F4A7002000A800200432B0B422F0070462
:103C2800A4F140073A460A4D42F8045B9442FBD19E
:103C380000224FF0807544E9033044E907223846F2
:103C480044E9052244F8201C44F8045CB0BC7047E1
:103C5800EFBEADDE2B4B10B51B68044613B1984779
:103C680000284DD0216C2848FFF76CFC616A274872
:103C7800FFF768FCA16A2648FFF764FCE16A25485B
:103C8800FFF760FC216B2448FFF75CFC6168234860
:103C9800FFF758FCA1682248FFF754FCE168214867
:103CA800FFF750FC21692048FFF74CFC61691F4869
:103CB800FFF748FCA1691E48FFF744FCE1691D486D
:103CC800FFF740FC216A1C48FFF73CFC616B1B486E
:103CD800FFF738FCA16B1A48FFF734FCE16B194871
:103CE800FFF730FC23685B0706D5FFF769F9014643
:103CF8001548FFF727FCFEE71448FFF723FCFAE70F
:103D080010BD00BF04A800200C6002081C60020857
:103D18002C6002083C6002084C6002085C600208E3
:103D28006C6002087C6002088C6002089C600208D3
:103D3800AC600208BC600208CC600208DC600208C3
:103D4800EC600208FC6002080C6102082C610208A1
:103D580070B590F822505DB1C46B1CB1A446BDE8A3
:103D6800704060476FF00500FFF76EFB002070BDE4
:103D78004FF0FF30FFF768FB002070BD70B50446B8
:103D8800164682B00D4600F099FB702000F04AFC00
:103D980000F0D2FBE0B200F045FC00F0CDFBA6B18C
:103DA800013EF6B22E44013D01E0B5420DD015F8B2
:103DB800010F00F037FC00F0BFFB0028F5D00190A0
:103DC80000F09CFB019802B070BD0020F7E700BF2F
:103DD800F8B5044615460E4600F070FB702000F05A
:103DE80021FC00F0A9FBE0B200F01CFC00F0A4FBF1
:103DF80000F064FB712000F015FC00F09DFB7DB124
:103E0800013DEFB23744741EC6F101063019401B5C
:103E180018BF012000F036FC04F8010FBC42F5D1B0
:103E2800BDE8F84000F06ABB4FF4006070B50124AB
:103E380003252D4B86B09A6902A942F080029A6147
:103E48009B69029003F0800328480193019B059524
:103E5800CDE903440025FDF763FD4FF48063244E4C
:103E680002A92248CDE90235FDF75AFD00F0EEFA25
:103E780014203560FFF76EF932203460FFF76AF9D5
:103E88002246694628468DF80050FFF777FF2246FC
:103E98006946A420FFF772FF162322466946802050
:103EA8008DF80030FFF76AFF0C2322466946882008
:103EB8008DF80030FFF762FF69460222A120FFF764
:103EC80087FF9DF80030302B02D0204606B070BD29
:103ED8009DF80130032BF8D1064843F20301FFF7A0
:103EE80031FB2846F2E700BF00100240001C0140E9
:103EF800AC812342486102082DE9F041554C84B059
:103F080023788DF807000133DBB203EB830203EB60
:103F1800C20202EB8202C2F3460141EAC212D2B2E5
:103F2800192A237001D9092B58D8012202200DF132
:103F38000701FFF74DFF9DF8070000F00F02531E21
:103F4800042B4DD8FF239340DB430026424963F0FE
:103F58003F03DBB281F820303341DA070D460F46C4
:103F6800DFF8F88009D40136052E07F102072DD0B5
:103F780095F820303341DA07F5D5042238F81600D1
:103F880003A9FFF725FF95F830309DF80E2013F0B0
:103F9800010F9DF80C3044D09DF80D00190201F472
:103FA8007061084412029DF80F1002F470620A440E
:103FB800F882BA8103F0F003802BD4D000230136B5
:103FC800052EFB82BB8107F10207D1D1AB89EA8AB2
:103FD80013439BB2B3BB0120237005E09DF8070093
:103FE80010F01F000FD11C4D95F9202095F82030B6
:103FF800002A11DB4FF6FF7223F01F0385F82030EB
:10400800AA81EA8200E000202378F02B84BF0A23EB
:10401800237004B0BDE8F08103F07F0385F82030F9
:10402800F2E79DF80D10180200F47060C1F5F07108
:10403800091A12029DF80F0002F470620244B98155
:10404800FA82B7E700229DF807300120DB062270CC
:10405800CAD0DEE708A800207000002054610208DA
:1040680070B50446164682B00D4600F027FA28209F
:1040780000F0D8FA00F060FA200A00F0D3FA00F055
:104088005BFAE0B200F0CEFA00F056FAA6B1013EB3
:10409800F6B22E44013D01E0B5420DD015F8010FEE
:1040A80000F0C0FA00F048FA0028F5D0019000F0BE
:1040B80025FA019802B070BD0020F7E700B5114A53
:1040C80083B08DF805006021002302F1B70001E0FC
:1040D80012F8011F0B449042DBB2F9D15B42B822BF
:1040E800084948F247008DF80430FFF7B9FF02226B
:1040F80001A948F2FF00FFF7B3FF002003B05DF805
:1041080004FB00BF88610208F8B5044615460E4650
:1041180000F0D4F9282000F085FA00F00DFA200A02
:1041280000F080FA00F008FAE0B200F07BFA00F044
:1041380003FA00F0C3F9292000F074FA00F0FCF942
:104148007DB1013DEFB23744741EC6F10106301946
:10415800401B18BF012000F095FA04F8010FBC427B
:10416800F5D1BDE8F84000F0C9B900BF4FF40060D0
:104178002DE9F0414FF0030C012400254FF480662F
:104188000227384B88B09A69DFF8EC8042F0800249
:104198009A619B6904A903F0800301930490324853
:1041A800019BCDF81CC0CDE90544FDF7B9FB04A976
:1041B8002D48CDE90465FDF7B3FB00F047F90A2067
:1041C800C8F80050FEF7C6FF0A20C8F80040FEF7FE
:1041D800C1FF04A92448CDE904650697FDF7A0FBB3
:1041E8006420FEF7B7FF042248F2401002A9FFF747
:1041F8008BFF1E4802A98DF80C50FFF7A3F91C4944
:1042080002A8FCF78DF818B1204608B0BDE8F08187
:10421800224602A948F240008DF80870FFF720FFF7
:1042280002A9224648F24700FFF76EFF9DF80810E2
:104238005F290FD900240A20FEF78CFF012202A96A
:1042480048F240008DF80840FFF70AFF204608B002
:10425800BDE8F0810748FFF775F92046FFF72EFF04
:10426800E8E700BF00100240001C0140606102083E
:104278006C61020874610208AC8123422DE9F043A5
:104288006E4C85B023788DF807000133DBB203EB61
:10429800830203EBC20202EB8202C2F3460141EA47
:1042A800C212D2B2192A237012D9092B10D99DF83B
:1042B800073003F08F03802B4FF0000000F08B8055
:1042C8002378F02B01D90A23237005B0BDE8F083C9
:1042D800012248F24E100DF10701FFF715FF9DF975
:1042E80007209DF80730002A63DB03F00F014A1E00
:1042F800042ADED8FF2303FA01F1CB430025504AF4
:1043080063F03F03B2F80CC0D08ADBB292F8208089
:1043180082F820302B4116461746A2F814C0D083E5
:10432800DA07DFF824918DF80B1009D40135052D33
:1043380007F1020723D096F820302B41DA07F5D58C
:10434800042239F8150003A9FFF7DEFE96F830308D
:10435800DB074FD59DF80E309DF80F20C3F5487345
:10436800A3EB02239DF80D109DF80C200135BB81AD
:10437800052D02EB0123FB8207F10207DBD1314B4C
:10438800B1891A88914203D85B88F28A9A424BD93C
:104398009DF8073013F00E0F40D00020F189328BC2
:1043A8002070B181F28203F08F03802B41D001206D
:1043B8008BE703F00F02052A3FF67BAF00230122AB
:1043C80048F24E100DF10B018DF80B30FFF748FE47
:1043D8009DF8073089E71A4E96F8208018F0800F6C
:1043E80017D14FF6FF7328F01F0886F82080B38195
:1043F800F38265E79DF80D309DF80C209DF80F10AD
:1044080002EB03229DF80E30BA8103EB0123FB82F5
:104418008CE708F07F0886F8208051E7B28AF38B92
:104428000120B281F382D9E700229DF8073022707B
:10443800B9E7012096F82080D0E700BF09A800203E
:104448007000002028D2002040620208022130B506
:1044580001240325144B87B09A69144842F00802D6
:104468009A619A6902F008020092009A9A6942F0E9
:1044780080029A619B69029103F08003019302A96B
:10448800019BCDE903440595FDF74AFA4FF4007303
:10449800074802A90293FDF743FA064A064B14603F
:1044A8001C6007B030BD00BF00100240000C014086
:1044B800001C014084812142A4812342012170B55E
:1044C80000250B4B0B4E5A680B4C22F0F0025A6039
:1044D8005A681E2042F030025A6031602160FEF7AF
:1044E8001FFA05203560FEF71BFA256070BD00BF76
:1044F800001C0140A48123428481214238B5012552
:104508000A4B0B495A681E2022F0F0025A605A687A
:10451800084C42F030025A600D60FEF701FA0023A1
:1045280005202360FEF7FCF9256038BD001C01401A
:1045380084812142A4812342012138B5144B154DB1
:104548005A68154C22F0F0025A605A68052042F069
:1045580080025A60803DC5F880102160FEF7E0F9BE
:104568002B68FA241BB909E013F0FF040BD00520CF
:10457800FEF7D6F92A68631E002AF5D10023064AF9
:104588001846136038BDFFF7B9FF012038BD00BFDA
:10459800001C0140A48123428481214238B50025B2
:1045A8000C4C0D4B25605A68052022F0F0025A6029
:1045B8005A6842F030025A60FEF7B2F9074B0520FC
:1045C8001D60FEF7ADF9012305202360FEF7A8F969
:1045D800256038BD84812142001C0140A48123420A
:1045E80070B5002501260C4C0C4B25605A68052037
:1045F80022F0F0025A605A6842F030025A60FEF720
:104608008FF9074B05201E60FEF78AF90520266002
:10461800FEF786F9256070BD84812142001C0140A7
:10462800A48123420021144B2DE9F0415A68134E0E
:1046380022F0F0025A605A68044642F030025A608A
:1046480005203160FEF76CF908254FF001080C4F82
:10465800E3093B600520C6F80080FEF761F90023F6
:1046680005203360FEF75CF96B1E640013F0FF054C
:10467800E4B2EDD1BDE8F081001C01408481214203
:10468800A48123422DE9F8430024174B81465A6838
:104698001E2022F0F0025A605A68A04642F08002BA
:1046A8005A60FEF73DF90825104E114F0520C6F84F
:1046B8000080FEF735F9012333603A6864006B1E09
:1046C800E4B20AB10134E4B213F0FF05EED1B9F156
:1046D800000F04D1FFF784FF2046BDE8F883FFF7F9
:1046E8005DFF2046BDE8F883001C0140848121421B
:1046F800248123422DE9F0474FF000080446C146C3
:10470800082501260B4FDFF830A0012023064CBFF7
:104718003E60C7F80080CAF800908440FEF700F9B0
:104728006B1E13F0FF05E4B2CAF80060EDD1BDE8D6
:10473800F08700BFA4812342848121422DE9F843F8
:104748000026DFF878901A4A1A4BC9F800601660FC
:104758001E60FFF7CFFF0620FEF7E2F80120C9F838
:104768000060FEF7DDF801204D464FF01008C9F84B
:10477800000034463746FEF7D3F8C9F800600E4EFD
:1047880001202F60FEF7CCF801232B60326864000B
:10479800A4B208F1FF330AB10134A4B213F0FF0840
:1047A800EED10122034B20091A60BDE8F88300BF4F
:1047B800A4812342AC812342088121428481214281
:1047C800F0B585B001AD06462C460DF10E07304612
:1047D800FFF7B4FF24F8020BBC42F8D101262C469F
:1047E80002352A46B3B2218832F8020B01338142DE
:1047F8009BB284BF208022F8021C052BF3D101361E
:10480800052EECD1BDF80600BDF80820BDF80A3029
:1048180010441844034B80B2A3FB0030400805B095
:10482800F0BD00BFABAAAAAA70B5084B0546187818
:104838000C46FFF7C5FF064B06461878FFF7C0FF82
:1048480003462E800120238070BD00BF6C0000202D
:104858006D00002070B582B005460C4668460DF123
:104868000201FFF7E1FF10B9002002B070BD0DF1A1
:10487800060101A8FFF7D8FF0028F5D0BDF80420ED
:10488800BDF800309A421BD903F131019142EBDBAC
:10489800BDF80660BDF802108E4205D806F1310059
:1048A800884205DA8E42DFD101F13100B042DBDB0C
:1048B800012013443144034101412B802180D4E776
:1048C80002F131019942E3DA9A42CDD1DCE700BF27
:1048D80038B5304B1B68A3B910B32F49A1F10A00B2
:1048E800A1F11604FFF7B6FF94F92030002B49DB3D
:1048F800C021A289E38A84F820108020A282E38361
:1049080038BD264B93F9201093F8202000293BDB73
:1049180000204FF6FF71224AD88399815A6138BD29
:104928001E4C04F1160104F10C00FFF793FF002858
:10493800DAD0A089FCF774FA616AFCF7C5FA054673
:10494800B4F92C00FCF76CFA01462846FCF7B4F9D8
:10495800FCF730FC0346E08AA381FCF761FAA16A00
:10496800FCF7B2FA0546B4F92E00FCF759FA0146ED
:104978002846FCF7A1F9FCF71DFC94F92030E082E9
:10498800002BB5DA802038BD02F07F0283F82020A2
:10499800002038BD288123428600002070000020B6
:1049A8000000FFFF2DE9F041164604460D461A4B5C
:1049B80000F10D020C381E6092B20B4680B203F073
:1049C800D1F804F1010805F10D03A5F10C016F1CE4
:1049D80022469BB220461FFA88F8BFB289B203F07C
:1049E800C1F8661E4046394600F058FFB6B239464F
:1049F8006F1E3046BFB200F051FF4046394600F006
:104A08004DFF3946304600F049FF29462046BDE8AB
:104A1800F041062203F016B9A800002008B52820A6
:104A280004490E2203F024FBBDE808400A21362081
:104A380003F0ECBA94000020362010B503F0C4FA55
:104A48000A2818BF002000D010BD0A4C0E222820CA
:104A580004F1240103F0FAFA94F830303BB19020C5
:104A6800D0220549054B08701A70012010BDD020CE
:104A78009022F6E7700000206C0000206D000020F6
:104A88002DE9F04F10244FF4784E8146884687B0C0
:104A9800524D5349DFF86CC1BDF84860CDE9032396
:104AA80001916B882A88A02128200094CCF800E086
:104AB800BDF840B0BDF844A0BDF850700596BDF8EB
:104AC8004C6003F04DFA47496B882A880191782099
:104AD800A021009403F044FA43496B882A88019185
:104AE8002820B421009403F03BFA40496B882A88B7
:104AF80001917820B421009403F032FA3C496B8884
:104B08002A8801912820C821009403F029FA3949FC
:104B18006B882A8801917820C821009403F020FA34
:104B280035496B882A8801912820DC21009403F0FC
:104B380017FA32496B882A8801917820DC21009481
:104B480003F00EFA2E496B882A8801912820F0215B
:104B5800009403F005FA4A460423A021402000945B
:104B680003F0AEF942460423A0219020009403F0FC
:104B7800A7F9039A0423B4214020009403F0A0F974
:104B8800049A0423B4219020009403F099F95A461A
:104B98000423C8214020009403F092F952460423CC
:104BA800C8219020009403F08BF9059A0423DC2196
:104BB8004020009403F084F932460423DC2190203D
:104BC800009403F07DF93A460323F0216020109405
:104BD80007B0BDE8F04F03F073B900BF28D200203A
:104BE8004C620208506202085462020858620208C5
:104BF8005C62020860620208646202086862020875
:104C08006C620208A80000202DE9F04F4FF6FF74EF
:104C18001F234FF47845274A274F91B02046146048
:104C28003B6000F095FF204600263D6000F090FFB5
:104C380028211022214B084600920193A0226423C8
:104C48003E6003F08DF914212A460846FFF7AAFEB4
:104C5800002334463546DFF868A0DFF868B08AF8E4
:104C68002060CAF82430DAF80430012098479AF80E
:104C7800203003F0C002402A40F04982691C10AA83
:104C880002EB850223F04003CDB2BAF80C00BAF863
:104C980016108AF820306B1E22F8100C22F80E1C11
:104CA800032B00F2CE81DFE813F0E401D101B70154
:104CB8000F0000BFA4000020A800002074620208B2
:104CC8007000002028D20020BDF83630BDF83290A0
:104CD800BDF83020A9EB03000028B8BF4042BDF85A
:104CE800348000FB00F00893A2EB0803002BB8BF48
:104CF8005B4203FB03000792FBF766FC20F0D8FE3B
:104D0800FBF7B4FFBDF83E20BDF83A300646981AC6
:104D18000028BDF83810B8BF40420693BDF83C30B3
:104D280000FB00F00A93CB1A002BB8BF5B4203FBD1
:104D380003000B920991FBF747FC20F0B9FEFBF743
:104D480095FFB6B207463046FCF766F8BFB2044690
:104D58003846FCF765F801462046FCF769F9FBF789
:104D680055FCCDA3D3E9002304460D46FBF718FFF5
:104D7800002840F09F81CAA3D3E900232046294692
:104D8800FBF72CFF002840F09581002E00F092815F
:104D9800002F00F08F81069B079AA9EB0303002BD5
:104DA8000999B8BF5B4203FB03F3501A0028B8BF48
:104DB800404200FB0030FBF707FC20F079FE0B9A1D
:104DC800089B04469B1A002B0A9AB8BF5B4203FB58
:104DD80003F3A8EB02000028B8BF404200FB0030F4
:104DE8000D46FBF7F1FB20F063FE06460F46204612
:104DF8002946FBF73BFF80B2FCF70EF8394604461C
:104E08003046FBF733FF80B2FCF70AF8014620462C
:104E1800FCF70EF9FBF7FAFB9FA3D3E9002304463E
:104E28000D46FBF7BDFE002840F044819CA3D3E962
:104E3800002320462946FBF7D1FE002840F03A819E
:104E4800069A089B9B1A002B099AB8BF5B4203FB82
:104E580003F3A8EB02000028B8BF404200FB003073
:104E6800FBF7B2FB20F024FE0B9B079AA9EB030388
:104E7800002B0D46B8BF5B420A9903FB03F30446B7
:104E8800501A0028B8BF404200FB0030FBF79CFBDB
:104E980020F00EFE06460F4620462946FBF7E6FEA2
:104EA80080B2FBF7B9FF394604463046FBF7DEFE11
:104EB80080B2FBF7B5FF01462046FCF7B9F8FBF7CF
:104EC800A5FB75A3D3E9002304460D46FBF768FE4E
:104ED800002840F0EF8072A3D3E90023204629463A
:104EE800FBF77CFE002840F0E580BBF80050A5F1F8
:104EF8002800FBF795FF079F0446A8EB0700FBF780
:104F08008FFF01462046FCF793F804462846CAF866
:104F18002440FBF785FF064607EB0800FBF780FFF8
:104F28002146FBF7D1FF01463046FBF7C3FE4FF0A1
:104F38007C51FBF7C9FFFCF717F9BBF80270AAF818
:104F48002C00A7F12800FBF76BFF069B0646A3EB96
:104F58000900FBF765FF01463046FCF769F806468D
:104F68003846CAF82860FBF75BFF069B804609EBCA
:104F78000300FBF755FF3146FBF7A6FF0146404605
:104F8800FBF798FE4FF07C51FBF79EFFFCF7ECF81F
:104F980003462046AAF82E30FCF7E6F880EAE073CC
:104FA800A3EBE073022B09DC3046FCF7DDF880EA5E
:104FB800E073A3EBE073022B40F3C080A5F114006B
:104FC800A7F114014FF6FF7289B280B2FFF7EAFC2D
:104FD80014214FF478420846FFF7E4FC1023324AC4
:104FE8001A21CDE900322820BBF80230BBF8002096
:104FF80002F0B6FF9AF83050002D0CBF01230023B1
:105008008AF8303040F091809020D0222749284BF0
:105018002C4608701A7026E6BBF802104FF6FF728D
:105028001439142089B2FFF7BDFCBBF80210BBF895
:105038000000143914384FF4784289B280B2FFF76F
:10504800B1FC0A20FEF786F801240CE6BBF8000044
:105058004FF6FF721438142180B2FFF7A3FCBBF897
:1050680002104FF478421439142089B2FFF79AFCE1
:10507800E7E714214FF6FF720846FFF793FCBBF8E9
:1050880000004FF478421438142180B2FFF78AFCEC
:10509800D7E700BFAFF30080666666666666EE3FD8
:1050A800CDCCCCCCCCCCF03FF06202086C00002018
:1050B8006D000020BBF80210BBF80000143914384A
:1050C8004FF6FF7289B280B2FFF76CFC14214FF4DF
:1050D80078420846FFF766FC0022284B20462946FE
:1050E800FBF7ECFAFBF7C2FD00240B9B80B203939D
:1050F8000A9B04900293069B42460193099B4946EA
:1051080000930798089BFFF7BBFC2546ABE50134E5
:105118000A20A4B2FEF71EF8B4F57A7F7FF6A3AD95
:1051280011B0BDE8F04FFFF787BCD02190220024D2
:10513800134B25461970134B1A7094E51F23124A16
:105148004FF6FF70136000F003FD10220F4B6E2125
:10515800CDE900232320BBF80230BBF8002002F081
:10516800FFFE4FF47A70FDF7F5FFFFF757FC4FF697
:10517800FF7011B0BDE8F04F00F0EABC00005940E4
:105188006C0000206D000020A800002004630208C5
:1051980045F2105230B5404C87B0A388934262D094
:1051A80041F6631293424ED00221012503243B4B62
:1051B8003B489A6942F008029A619A6902F008022B
:1051C8000092009A9A6942F080029A619B69029162
:1051D80003F08003019302A9019B0594CDE90355CF
:1051E8000024FCF79DFB04232D4802A9CDE90234D5
:1051F800FCF796FB4FF420632A4802A9CDE9023553
:10520800FCF78EFB4FF48063264802A90293CDE990
:105218000345FCF785FB2449A1F10A00FFF704FBCD
:1052280002F0D0FEFFF708FC10B1002007B030BD37
:105238004FF6FF7000F08CFCFFF7E6FCFFF7FCFB75
:10524800284607B030BDFEF7EFFD184AA17992F85D
:105258003030174801F0010163F07F030B4382F8F7
:1052680030305060E1E7FEF781FF78B90F4A114B03
:105278005360002092F83030A17963F07F0301F089
:1052880001010B4382F8303007B030BD00F076F8EA
:10529800064A094B5360ECE728D200200010024070
:1052A800000C0140001C0140860000207000002016
:1052B800013F0008854200083154000870B50446D3
:1052C800164682B00D46FFF7F9F8B220FFF7AAF9A3
:1052D800FFF732F9200AFFF7A5F9FFF72DF9E0B239
:1052E800FFF7A0F9FFF728F9A6B1013EF6B22E4460
:1052F800013D01E0B5420DD015F8010FFFF792F915
:10530800FFF71AF90028F5D00190FFF7F7F8019890
:1053180002B070BD0020F7E7F8B5044615460E4602
:10532800FFF7CCF8B220FFF77DF9FFF705F9200A5F
:10533800FFF778F9FFF700F9E0B2FFF773F9FFF725
:10534800FBF8FFF7BBF8B320FFF76CF9FFF7F4F8A9
:105358007DB1013DEFB23744741EC6F10106301924
:10536800401B18BF0120FFF78DF904F8010FBC425C
:10537800F5D1BDE8F840FFF7C1B800BFF0B500258A
:105388004FF400610124032687B0224B8DF80250A8
:105398009A69214F42F080029A619B69384603F06E
:1053A80080030193029102A9019B0596CDE903446C
:1053B800FCF7B6FA4FF48063184E02A93846CDE9D7
:1053C8000235FCF7ADFAFFF741F835606420FDF7C8
:1053D800C1FE34606420FDF7BDFE802322460DF136
:1053E80003014FF450608DF80330FFF767FF224642
:1053F8000DF102014FF45060FFF78EFF9DF8021087
:105408000748FEF79FF89DF80200803818BF012072
:1054180007B0F0BD00100240001C0140AC812342DF
:1054280048610208000000002DE9F04FDFF8BCB128
:1054380085B09BF800308DF807000133DBB203EB31
:10544800830203EBC20202EB8202C2F3460141EA85
:10545800C212D2B2192A8BF800300ED9092B0CD9F6
:105468009DF80720D20670D00020F02B84BF0A23B5
:105478008BF8003005B0BDE8F08F012200200DF157
:105488000701FFF749FF9DF80720D40602F01F0324
:105498005BD00FF23C19D9E900894FA7D7E900671B
:1054A80000244F4A43F0C00382F820302341D80734
:1054B8001546924609D40134052C0AF1020A3BD05C
:1054C80095F820302341D807F5D5464B042233F808
:1054D800140003A9FFF720FF95F830309DF80E005F
:1054E80013F0010F9DF80F3003EB00204BD0FBF7B2
:1054F8007BF842464B46FBF7E1F8FBF7B7FB9DF814
:105508000C209DF80D30AAF8160003EB0220FBF7DB
:105518006BF832463B46FBF7D1F802460B460020B3
:105528003149FAF713FFFBF7A1FB0134052CAAF860
:105538000C000AF1020AC3D1AB89EA8A13439BB271
:10554800B3B901208BF8003001E00020244D95F913
:10555800202095F82030002A30DB4FF6FF7123F029
:105568001F0285F820209BF80030A981E9827CE79A
:1055780000229DF807300120D9068BF80020E6D0DC
:1055880005B0BDE8F08FFBF72FF842464B46FBF716
:1055980095F8FBF76BFB9DF80C209DF80D30AAF8E9
:1055A8000C0003EB0220FBF71FF832463B46FBF7E3
:1055B80085F8FBF75BFBAAF816007CE703F07F038E
:1055C80085F820309BF800304FE700BFAFF300802C
:1055D8007B14AE47E17AD43FD881734694F6D23F24
:1055E800700000201C630208000089400AA80020FF
:1055F80049F2413270B4304CA38893421FD045F22F
:10560800103293421BD041F66312934226D045F2E2
:105618001052934220D16689A589284B741C1E809C
:105628006A1C060A5E80A4B20E0A92B2C0B2C9B25F
:105638001C8058801D805E801A8059800CE0628929
:105648001E4BA489050A1A80C0B20A0AC9B25D8035
:1056580058801C805A80598070BC7047A279E2B982
:1056680023886689013B181A144BC0F30725C0B27A
:105678001E805A805A805D8058806388A5890F4AA9
:10568800013B0C0AC3F30F20C9B2DBB2158054806A
:10569800518070BC5080538070476589074A030A5F
:1056A800C0B21580538050802388013BC3F30F207C
:1056B800DBB250805380E0E728D20020FE07006C60
:1056C800F0B5724A9379012B6BD0C3B941F66313D5
:1056D80094889C4200F0B78049F241339C4213D031
:1056E80045F210339C4266D045F210539C4200F0BC
:1056F8008D8041F663139C4200F0BF80F0BD49F2F3
:10570800413394889C42EBD10138C0B206287BD83B
:105718005F4B33F8103036255E4943F008000D80A2
:1057280003F020034880002B7ED0138851888B42D9
:1057380004D21846538011800B46014645F210509A
:1057480084424AD1002055899489524A013B6E1CF3
:1057580005F1020E1580B6B205F1030C1FFA8EFE94
:10576800C3F30F25508001391680DBB250801FFA31
:105778008CFCA2F800E0671C5580A61CE51CA2F86A
:1057880000C0BFB25380B6B2C1F30F23ADB2C9B2E5
:105798001480508017805080168053801580518067
:1057A800F0BD41F6631394889C4252D007289CBFF1
:1057B800394B185C90E70138C0B2062839D936242D
:1057C8000020344B51881C8058801388994204D299
:1057D8001846538011800B4601460020548995894C
:1057E8002C4A013B01391480C3F30F26C1F30F245F
:1057F800DBB2C9B2508050805680538015805080EB
:10580800508054805180F0BD002384E70138C0B235
:1058180006282CD900204FF458551E4900F02003C3
:105828000D804880002B80D1138851888B4285D900
:105838007FE73623164D174935F810000B8000F026
:10584800200348806FE707283FF64AAF124B185CE1
:105858004AE70138C0B206280DD80D4B33F810407E
:1058680036200C4B518818805C801388B5E7084BAC
:1058780033F81000CFE70024F2E7431EDBB2062B13
:10588800F9D8034931F81340EAE700BF28D20020CD
:1058980040630208FE07006C3863020808B5FFF78A
:1058A800A7FE044A044B1189044A198012885A80B9
:1058B80008BD00BF28D20020FE07006CA800002009
:1058C800F0B449F24134284DAB88A34223D045F2C5
:1058D8001034A3421FD045F21054A3422FD041F6F2
:1058E8006314A34224D1AB791BB92B88013B181A46
:1058F80080B26C891D4BAE891C80040AC0B25C80E2
:1059080058805C800C0AC9B258801E805C8059801F
:105918005C8059800CE06C89144BAE891C80040AA9
:105928005C80C0B20C0AC9B258801E805C80598065
:1059380029890E4B92B21980F0BC5A8070476C8945
:105948000A4BAF89661C1C80040A5C80B6B27C1CBA
:105958001E80C0B20E0AA4B2C9B258801F805E80F1
:105968001C805980E4E700BF28D20020FE07006CA5
:10597800BE22052310B50E4C22806380FAF734FE50
:1059880009A3D3E90023FAF799FEFBF76FF900237F
:105998000121FF2280B26080618062806380638021
:1059A80010BD00BFAFF30080666666666666044099
:1059B800FE07006C3F4B30B4987138BB49F2413058
:1059C800F0244FF4A0719A881C808242598013D029
:1059D80045F2103082425FD045F210518A4242D0DF
:1059E80041F663118A420DD12C252B242A204FF42D
:1059F800F0714FF448722DE02C202A212B221881B7
:105A080059819A81002030BCFFF75ABE49F24130D3
:105A18004FF4A071F0249A88198082425C80EBD000
:105A280045F21030824229D045F210518A4207D0FF
:105A380041F663118A42E5D12C252A242B2005E062
:105A48004FF430554FF428544FF42C504FF448710C
:105A58004FF4F0721D815C81988130BC0020198060
:105A68005A80FFF72DBE4FF430554FF428544FF4A9
:105A78002C504FF4F0714FF44872EBE72C252A2490
:105A88002B204FF4F0721D815C81988130BC00207E
:105A980059801A80FFF714BE2C252A242B204FF496
:105AA800F0721D815C81988130BC002019805A8079
:105AB800FFF706BE28D20020214B4CF233705A69FA
:105AC80070B502260125032442F480725A615A698E
